:100000000C942A000C9447000C9447000C94470071
:100010000C9447000C9447000C9447000C94470044
:100020000C9447000C9447000C9447000C94AC03CC
:100030000C94DC030C9447000C9447000C9447008C
:100040000C9447000C9447000C9447000C94470014
:100050000C94470011241FBECFE5D4E0DEBFCDBF16
:1000600010E0A0E6B0E0EEE6F6E102C005900D92E9
:10007000AC36B107D9F710E0ACE6B0E001C01D9294
:10008000A239B107E1F70E9449000C94350B0C949A
:1000900000000F931F93DF93CF93CDB7DEB72E975A
:1000A0000FB6F894DEBF0FBECDBF0E94D80080E02F
:1000B00090E0AAE7B4E489839A83AB83BC83698127
:1000C0007A818B819C8126E636E646EE54E40E94D6
:1000D000E406DC01CB018D839E83AF83B88711E0FA
:1000E0006D817E818F81988520E030E040E85FE37C
:1000F0000E94EC0888230CF010E0112329F081E025
:1001000090E09A87898746C011E06D817E818F815A
:10011000988520E03FEF4FE757E40E948C081816BF
:100120000CF010E0112361F169817A818B819C814F
:1001300020E030E040E251E40E94E406DC01CB0123
:10014000BC01CD010E941005DC01CB019A87898793
:1001500012C088EB90E09C878B878B859C858C01F7
:10016000C8010197F1F78C011C870B8789859A8557
:1001700001979A87898789859A85009751F797CF44
:100180006D817E818F8198850E941005DC01CB01F5
:100190009A87898789859A859E878D878D859E8593
:1001A0008C01C8010197F1F78C011E870D877FCF65
:1001B0000F931F93DF93CF93CDB7DEB76A970FB638
:1001C000F894DEBF0FBECDBF19820AC08981882F87
:1001D00090E081599F4FFC01108289818F5F898354
:1001E0008981803298F31A820AC08A81882F90E030
:1001F00081579F4FFC0110828A818F5F8A838A8199
:10020000833098F381E390E021E330E0F90120812D
:100210002460FC01208382E390E022E330E0F901D6
:1002200020812B7FFC01208380E090E0AAEFB3E4E3
:100230008B839C83AD83BE836B817C818D819E810A
:1002400022E539E44DE150E40E94E406DC01CB01F3
:100250008F839887A987BA8711E06F817885898510
:100260009A8520E030E040E85FE30E94EC088823B4
:100270000CF010E0112319F081E08B87A3C011E08E
:100280006F81788589859A8520E030E04FE753E4D7
:100290000E948C0818160CF010E0112309F489C094
:1002A0006B817C818D819E8120E030E04AE754E4BF
:1002B0000E94DE07DC01CB018C879D87AE87BF875C
:1002C0006C857D858E859F8526E636E646EE54E470
:1002D0000E94E406DC01CB01888B998BAA8BBB8B37
:1002E00011E0688979898A899B8920E030E040E8BB
:1002F0005FE30E94EC0888230CF010E0112329F042
:1003000081E090E09D8B8C8B46C011E068897989F3
:100310008A899B8920E03FEF4FE757E40E948C08D1
:1003200018160CF010E0112361F16C857D858E8527
:100330009F8520E030E040E251E40E94E406DC01C9
:10034000CB01BC01CD010E941005DC01CB019D8BCE
:100350008C8B12C088EB90E09F8B8E8B8E899F894F
:100360008C01C8010197F1F78C011F8B0E8B8C89D2
:100370009D8901979D8B8C8B8C899D89009751F766
:1003800028C0688979898A899B890E941005DC01C7
:10039000CB019D8B8C8B8C899D89998F888F888DC3
:1003A000998D8C01F8013197F1F78F01198F088F22
:1003B00010C06F81788589859A850E941005DC01BF
:1003C000CB018B878B858A8F8A8D182F1A95F1F731
:1003D0001A8F81E390E021E330E0F901208122606F
:1003E000FC01208382E390E022E330E0F9012081E8
:1003F0002D7FFC01208380E490E0FC01108289E2E3
:1004000090E02FE2FC0120838BE290E0FC0110825F
:100410008AE290E028E9FC01208380E490E026E86D
:10042000FC01208378946A960FB6F894DEBF0FBE65
:10043000CDBFCF91DF911F910F910895DF93CF939F
:1004400000D0CDB7DEB789836A83F8948981882F7D
:1004500090E081599F4F2A81FC01208378940F906E
:100460000F90CF91DF910895DF93CF930F92CDB787
:10047000DEB789838981882F90E081599F4FFC01E5
:1004800080810F90CF91DF910895DF93CF930F92EA
:10049000CDB7DEB789838981882F90E081599F4F3E
:1004A000FC01808186958F730F90CF91DF91089525
:1004B000DF93CF9300D0CDB7DEB78A8319820FC008
:1004C0008981882F90E0805A9F4FFC0190818A811A
:1004D000981711F481E007C089818F5F8983898132
:1004E000843070F380E00F900F90CF91DF910895EA
:1004F0000F931F93DF93CF93CDB7DEB762970FB6FD
:10050000F894DEBF0FBECDBF898B6A8B8989869533
:1005100086958F7189838A898F778A838989882FC5
:1005200090E082709070009749F48981882F90E064
:1005300081599F4F2A81FC012083BDC08989882F62
:1005400090E081709070882341F08981882F90E03D
:1005500081599F4F2A81FC01208389818E3108F0C7
:10056000A9C089810E945802882309F4A4C0898106
:10057000882F90E081599F4FFC01808180938F00EC
:1005800089898C7F8093900082E08093910082E340
:1005900090E022E330E0F90120812460FC01208317
:1005A0008AE290E02AE230E0F90120812062FC0139
:1005B000208380E090E0A8ECB2E48B839C83AD8341
:1005C000BE836B817C818D819E8126E636E646EE78
:1005D00054E40E94E406DC01CB018F839887A9874D
:1005E000BA8711E06F81788589859A8520E030E0AF
:1005F00040E85FE30E94EC0888230CF010E0112330
:1006000029F081E090E09C878B8746C011E06F81E4
:10061000788589859A8520E03FEF4FE757E40E946F
:100620008C0818160CF010E0112361F16B817C81AD
:100630008D819E8120E030E040E251E40E94E4069A
:10064000DC01CB01BC01CD010E941005DC01CB0116
:100650009C878B8712C088EB90E09E878D878D8565
:100660009E858C01C8010197F1F78C011E870D87CB
:100670008B859C8501979C878B878B859C850097B4
:1006800051F719C06F81788589859A850E94100578
:10069000DC01CB019C878B878B859C85988B8F8712
:1006A0008F8598898C01F8013197F1F78F01188BAC
:1006B0000F8701C0000062960FB6F894DEBF0FBE30
:1006C000CDBFCF91DF911F910F910895DF93CF930D
:1006D00000D0CDB7DEB78A838A8188234CF48A8123
:1006E00080936C0080916D00816080936D0013C0D9
:1006F00080916D00882F90E081709070882349F080
:100700008A8180936E0080916D00826080936D007D
:1007100002C010926D0080916D008330B9F4809119
:100720006E00837089838981813019F089818230DC
:1007300019F410926D000BC080916C0090916E00C6
:10074000692F0E94780210926D0001C000000F9086
:100750000F90CF91DF9108951F920F920FB60F92D5
:1007600011242F933F934F935F936F937F938F93B6
:100770009F93AF93BF93EF93FF93DF93CF93CDB747
:10078000DEB7F8948CE290E0FC0180810E94660361
:100790007894CF91DF91FF91EF91BF91AF919F91AD
:1007A0008F917F916F915F914F913F912F910F901A
:1007B0000FBE0F901F9018951F920F920FB60F92B9
:1007C00011240F931F932F933F934F935F936F9336
:1007D0007F938F939F93AF93BF93EF93FF93DF9399
:1007E000CF93CDB7DEB76897DEBFCDBFF8948091C9
:1007F0009100882309F0E8C08AE290E02AE230E024
:10080000F90120812F7DFC01208380E090E0AAEF98
:10081000B3E489839A83AB83BC8369817A818B81BA
:100820009C8122E539E44DE150E40E94E406DC01BC
:10083000CB018D839E83AF83B88711E06D817E816C
:100840008F81988520E030E040E85FE30E94EC086B
:1008500088230CF010E0112319F081E08987A3C0F0
:1008600011E06D817E818F81988520E030E04FE737
:1008700053E40E948C0818160CF010E0112309F4C0
:1008800089C069817A818B819C8120E030E04AE7D0
:1008900054E40E94DE07DC01CB018A879B87AC878A
:1008A000BD876A857B858C859D8526E636E646EE86
:1008B00054E40E94E406DC01CB018E879F87A88B5D
:1008C000B98B11E06E857F858889998920E030E0B9
:1008D00040E85FE30E94EC0888230CF010E011234D
:1008E00029F081E090E09B8B8A8B46C011E06E85F9
:1008F0007F858889998920E03FEF4FE757E40E9480
:100900008C0818160CF010E0112361F16A857B85C4
:100910008C859D8520E030E040E251E40E94E406B1
:10092000DC01CB01BC01CD010E941005DC01CB0133
:100930009B8B8A8B12C088EB90E09D8B8C8B8C8973
:100940009D898C01C8010197F1F78C011D8B0C8BDF
:100950008A899B8901979B8B8A8B8A899B890097BF
:1009600051F728C06E857F85888999890E94100576
:10097000DC01CB019B8B8A8B8A899B899F8B8E8B19
:100980008E899F898C01F8013197F1F78F011F8BB8
:100990000E8B10C06D817E818F8198850E9410051D
:1009A000DC01CB0189878985888F888D182F1A955E
:1009B000F1F7188F82E390E022E330E0F901208123
:1009C0002B7FFC01208313C08CE290E020919100EA
:1009D000222F30E02150304021573F4FF901208134
:1009E000FC01208380919100815080939100789444
:1009F0006896DEBFCDBFCF91DF91FF91EF91BF91A0
:100A0000AF919F918F917F916F915F914F913F91A6
:100A10002F911F910F910F900FBE0F901F9018955F
:100A2000EF92FF920F931F937B018C0120E030E047
:100A300040E05FE40E94BC0887FD11C0C801B70117
:100A400020E030E040E05FE40E94B3060E941C0911
:100A50009B01AC01205030404040504806C0C801C6
:100A6000B7010E941C099B01AC01B901CA011F9189
:100A70000F91FF90EF900895A0E0B0E0E2E4F5E080
:100A80000C94020BFC01EA018081823008F438C129
:100A9000DB019C91923008F430C1843059F49430D9
:100AA00009F02EC1918111968C911197981709F038
:100AB00021C126C1943009F420C19230B1F48230B2
:100AC00009F01EC1CA01AF0128E0DA010D90AD01A5
:100AD000DC010D92CD012150C1F7DB0111968C9103
:100AE00011979181892389830AC1823009F405C154
:100AF000C280D380DB0112966D907C901397248185
:100B00003581468157811496ED90FD900D911C9191
:100B10001797C601861997095C0197FF04C0AA249C
:100B2000BB24A81AB90AB0E2AB16B1040CF061C03C
:100B3000181619066CF5370148010A2C04C0969462
:100B40008794779467940A94D2F781E090E0A0E0CC
:100B5000B0E00A2C04C0880F991FAA1FBB1F0A947B
:100B6000D2F70197A109B1098E219F21A023B123BA
:100B7000EE24FF248701E3940097A105B10519F441
:100B8000EE24FF248701E628F728082919293CC00C
:100B90000097D1F1CA0CDB1C39014A010A2C04C0B0
:100BA00096948794779467940A94D2F781E090E0C2
:100BB000A0E0B0E00A2C04C0880F991FAA1FBB1F39
:100BC0000A94D2F70197A109B10982239323A423A0
:100BD000B52321E030E040E050E00097A105B105E9
:100BE00019F420E030E0A90126293729482959299C
:100BF0000BC06C147D0424F4EE24FF24870104C090
:100C0000630120E030E0A9018181FB019181891716
:100C100009F445C0882349F0D801C701821B930B12
:100C2000A40BB50B9C01AD0104C02E193F09400B6C
:100C3000510B57FD04C01982DB82CA820BC081E0D0
:100C40008983DB82CA8250954095309521953F4F2C
:100C50004F4F5F4F2C833D834E835F830DC0880FC2
:100C6000991FAA1FBB1F8C839D83AE83BF838A817C
:100C70009B8101979B838A838C819D81AE81BF81FB
:100C80009C01AD0121503040404050402F3FEFEFDC
:100C90003E07EFEF4E07EFE35E0708F30BC08983D3
:100CA000DB82CA822E0D3F1D401F511F2C833D83C6
:100CB0004E835F8383E088832C813D814E815F81F9
:100CC00057FF1DC0DA01C90181709070A070B0702B
:100CD0005695479537952795822B932BA42BB52BAB
:100CE0008C839D83AE83BF838A819B8101969B8386
:100CF0008A8305C0E4E6F0E003C0FB0101C0FE0109
:100D0000CF01CDB7DEB7EEE00C941E0BA0E2B0E051
:100D1000ECE8F6E00C940A0B69837A838B839C835E
:100D20002D833E834F83588789E0E82EF12CEC0E0B
:100D3000FD1ECE010196B7010E943C0A8E010F5E96
:100D40001F4FCE010596B8010E943C0AC701B801A9
:100D5000AE01475E5F4F0E943C050E946E09A0965F
:100D6000E6E00C94260BA0E2B0E0E9EBF6E00C9490
:100D70000A0B69837A838B839C832D833E834F8305
:100D800058878E01075F1F4FCE010196B8010E9460
:100D90003C0A91E1E92EF12CEC0EFD1ECE010596E8
:100DA000B7010E943C0A8A8991E089278A8BC80191
:100DB000B701AE01475E5F4F0E943C050E946E097D
:100DC000A096E6E00C94260BA0E2B0E0EAEEF6E096
:100DD0000C94FE0A69837A838B839C832D833E83E4
:100DE0004F835887CE010196BE01675F7F4F0E94F7
:100DF0003C0ACE010596BE016F5E7F4F0E943C0A01
:100E00009985923078F089898230C0F0943019F455
:100E1000823041F4CBC0843019F4923079F4C6C0EA
:100E2000923051F481E02A859A89291709F480E0EB
:100E30008A87CE010996BCC0823051F481E02A85B0
:100E40009A89291709F480E08A8BCE014196B0C0B7
:100E50006D847E848F849888ED88FE880F89188D34
:100E6000E0E2F0E080E090E0DC01AA24BB24650130
:100E700020E030E0A901B301617070706115710567
:100E8000D1F02E0D3F1D401F511F15012601280EC8
:100E9000391E4A1E5B1E81E090E0A0E0B0E02E15F6
:100EA0003F054007510718F080E090E0DC01820D1B
:100EB000931DA41DB51DAA0CBB1CCC1CDD1C17FF6B
:100EC00009C061E0262E312C412C512CA228B328D8
:100ED000C428D528319749F0EE0CFF1C001F111FC4
:100EE0009694879477946794C6CF6B897C89EB85B9
:100EF000FC856E0F7F1F6E5F7F4F7C8F6B8F61E075
:100F0000EA857A89E71709F460E06A8F6B8D7C8D3A
:100F100010C0FC01E170F070309729F056954795AC
:100F2000379527955068B695A795979587956F5FE4
:100F30007F4FB7FDEECF0CC0880F991FAA1FBB1FB4
:100F400057FD8160220F331F441F551F61507040B1
:100F50008030E0E09E07E0E0AE07E0E4BE0760F32B
:100F60006B8F7C8F6FE7E62EF12C012D112DE8227F
:100F7000F9220A231B2360E4E616F104010511059A
:100F800061F487FD0AC0211531054105510529F09D
:100F9000805C9F4FAF4FBF4F80788D8F9E8FAF8FFC
:100FA000B8A383E0898FCE01499602C084E690E021
:100FB0000E946E09A096E2E10C941A0BA8E1B0E041
:100FC000E4EEF7E00C94060B69837A838B839C83B1
:100FD0002D833E834F8358878E01075F1F4FCE01BD
:100FE0000196B8010E943C0A81E1E82EF12CEC0E3A
:100FF000FD1ECE010596B7010E943C0A99859230EC
:1010000008F483C08989823008F47BC02A853A8934
:1010100023272A87943011F0923021F4981709F091
:101020006CC071C0843039F41D861E861F86188AF4
:101030001C861B866AC0823019F484E0898765C0EB
:101040008B859C852B893C89821B930B9C878B8786
:101050002D853E854F855889ED88FE880F89188D2E
:101060002E153F054007510738F4220F331F441F48
:10107000551F01979C878B876FE170E0A12CB12CE5
:10108000C12CA0E4DA2E80E090E0DC012E153F05B3
:101090004007510740F08A299B29AC29BD292E1908
:1010A0003F09400B510BD694C794B794A794220FD5
:1010B000331F441F551F6150704041F76FE7E62E04
:1010C000F12C012D112DE822F9220A231B2360E4C3
:1010D000E616F1040105110561F487FD0AC021152A
:1010E00031054105510529F0805C9F4FAF4FBF4F3F
:1010F00080788D879E87AF87B88B8E01075F1F4FE3
:1011000004C0870102C004E610E0C8010E946E0915
:101110006896EAE00C94220BA8E1B0E0E2E9F8E07E
:101120000C940A0B69837A838B839C832D833E8383
:101130004F8358878E01075F1F4FCE010196B8017C
:101140000E943C0A81E1E82EF12CEC0EFD1ECE013E
:101150000596B7010E943C0A8985823040F0898952
:10116000823028F0C801B7010E94A50A01C08FEFA4
:101170006896E6E00C94260BA8E1B0E0E2ECF8E01B
:101180000C940A0B69837A838B839C832D833E8323
:101190004F8358878E01075F1F4FCE010196B8011C
:1011A0000E943C0A81E1E82EF12CEC0EFD1ECE01DE
:1011B0000596B7010E943C0A8985823040F08989F2
:1011C000823028F0C801B7010E94A50A01C08FEF44
:1011D0006896E6E00C94260BA8E1B0E0E2EFF8E0B8
:1011E0000C940A0B69837A838B839C832D833E83C3
:1011F0004F8358878E01075F1F4FCE010196B801BC
:101200000E943C0A81E1E82EF12CEC0EFD1ECE017D
:101210000596B7010E943C0A8985823040F0898991
:10122000823028F0C801B7010E94A50A01C081E000
:101230006896E6E00C94260BACE0B0E0E2E2F9E060
:101240000C940E0B69837A838B839C83CE01019669
:10125000BE016B5F7F4F0E943C0A8D81823081F11D
:10126000823070F1843021F48E81882369F10AC0C4
:101270002F81388537FD24C06E812F3131053CF038
:10128000662311F120E030E040E050E821C08EE11B
:1012900090E0821B930B29853A854B855C8504C0C1
:1012A00056954795379527958A95D2F7662381F00D
:1012B00050954095309521953F4F4F4F5F4F08C057
:1012C00020E030E0A90104C02FEF3FEF4FEF5FE7D0
:1012D000B901CA012C96E2E00C942A0BEF92FF921E
:1012E0000F931F93CF93DF93FC01248135814681B7
:1012F000578161818081823020F44061EFEFF0E01E
:10130000A3C0843009F49BC0823009F492C0211537
:1013100031054105510509F48FC00280F381E02DAC
:101320008FEFE238F8070CF05AC0C2E8DFEFCE1BAF
:10133000DF0BCA31D1056CF579018A010C2E04C08E
:1013400016950795F794E7940A94D2F781E090E018
:10135000A0E0B0E00C2E04C0880F991FAA1FBB1F8D
:101360000A94D2F70197A109B10982239323A423F8
:10137000B52321E030E040E050E00097A105B10541
:1013800019F420E030E0A9012E293F29402B512BF0
:1013900003C020E030E0A901DA01C9018F77907025
:1013A000A070B07080349105A105B10539F427FF14
:1013B00009C0205C3F4F4F4F5F4F04C0215C3F4F3F
:1013C0004F4F5F4FE1E0F0E0203080E0380780E0F1
:1013D000480780E4580728F5E0E0F0E022C0E03854
:1013E000F1056CF5E158FF4FDA01C9018F77907074
:1013F000A070B07080349105A105B10539F427FFC4
:1014000009C0205C3F4F4F4F5F4F04C0215C3F4FEE
:101410004F4F5F4F57FF05C0569547953795279516
:10142000319687E056954795379527958A95D1F758
:101430000BC0E0E0F0E005C0E0E0F0E005C0EFEF59
:10144000F0E020E030E0A9018E2F8795882787956E
:10145000942F9F77679566276795E695E22EA92FCB
:10146000A82BFE2FF62B622F732F8A2F9F2FCDB71D
:10147000DEB7E6E00C94260BDC01FB012C91119603
:101480003C91119712968C911297482F4F7750E00C
:10149000982F991F9927991F13966C911397862F50
:1014A000880F892B90E0661F6627661F618300976F
:1014B00039F5211531054105510511F482E029C0A6
:1014C00082E89FEF9383828367E0220F331F441FDC
:1014D000551F6A95D1F783E0808309C0220F331F1F
:1014E000441F551F8281938101979383828320300B
:1014F00080E0380780E0480780E4580778F320C090
:101500008F3F910579F4211531054105510519F4F5
:1015100084E08083089544FF03C081E0808310C08D
:1015200010820EC08F5790409383828383E0808324
:1015300087E0220F331F441F551F8A95D1F750644F
:1015400024833583468357830895FC01DB01908112
:10155000923008F449C08C91823008F445C0943030
:1015600051F461818430B1F511962C91119730E0DE
:10157000261B310941C0843021F0923041F4823081
:10158000B1F111968C9111978823A1F12DC0618141
:10159000823001F111968C9111976817D9F422814C
:1015A000338112968D919C9113978217930794F033
:1015B00028173907BCF0248135814681578114965C
:1015C0008D919D910D90BC91A02D82179307A4073A
:1015D000B50718F4662341F00DC0281739074A07EC
:1015E0005B0728F4662331F021E030E005C020E0FD
:1015F00030E002C02FEF3FEFC90108952F923F92D4
:101600004F925F926F927F928F929F92AF92BF9212
:10161000CF92DF92EF92FF920F931F93CF93DF93BE
:10162000CDB7DEB7CA1BDB0B0FB6F894DEBF0FBE1B
:10163000CDBF09942A88398848885F846E847D8468
:101640008C849B84AA84B984C884DF80EE80FD806A
:101650000C811B81AA81B981CE0FD11D0FB6F894E0
:0E166000DEBF0FBECDBFED010895F894FFCFA1
:0C166E000701181B000000000000000035
:00000001FF
